{
  "contractName": "Ali",
  "abi": [
    {
      "anonymous": false,
      "inputs": [
        {
          "indexed": false,
          "name": "result",
          "type": "uint256"
        },
        {
          "indexed": false,
          "name": "x",
          "type": "uint256"
        },
        {
          "indexed": false,
          "name": "y",
          "type": "uint256"
        },
        {
          "indexed": false,
          "name": "timestamp",
          "type": "uint256"
        }
      ],
      "name": "AddLog",
      "type": "event"
    },
    {
      "constant": false,
      "inputs": [
        {
          "name": "_x",
          "type": "uint256"
        },
        {
          "name": "_y",
          "type": "uint256"
        }
      ],
      "name": "Add",
      "outputs": [],
      "payable": false,
      "stateMutability": "nonpayable",
      "type": "function"
    },
    {
      "constant": true,
      "inputs": [],
      "name": "getx",
      "outputs": [
        {
          "name": "",
          "type": "uint256"
        }
      ],
      "payable": false,
      "stateMutability": "view",
      "type": "function"
    }
  ],
  "bytecode": "0x608060405234801561001057600080fd5b506101f2806100206000396000f3fe60806040526004361061004c576000357c0100000000000000000000000000000000000000000000000000000000900463ffffffff1680637afbe4f114610051578063e276c79914610096575b600080fd5b34801561005d57600080fd5b506100946004803603604081101561007457600080fd5b8101908080359060200190929190803590602001909291905050506100c1565b005b3480156100a257600080fd5b506100ab6101bd565b6040518082815260200191505060405180910390f35b80821415151561015f576040517f08c379a00000000000000000000000000000000000000000000000000000000081526004018080602001828103825260238152602001807f5468652074776f206e756d626572732073686f756c64206e6f7420626520657181526020017f75616c000000000000000000000000000000000000000000000000000000000081525060400191505060405180910390fd5b8082016000819055507fca295e8376a171eebb743099c2f6fcadfc5c21d1b95686b73b8d100e7ad450a76000548383426040518085815260200184815260200183815260200182815260200194505050505060405180910390a15050565b6000805490509056fea165627a7a7230582045b58c783924ba863e690fc63af6b6107da3879f095985f21085b0450141a8410029",
  "source": "// SPDX-License-Identifier: MIT\r\npragma solidity >=0.4.22 <0.9.0;\r\n\r\ncontract Ali{\r\nuint256 private x;\r\n\r\n  event AddLog(uint256 result, uint256 x, uint256 y, uint256 timestamp);\r\n\r\n  function Add(uint256 _x, uint256 _y) public {\r\n\r\n    require(_x != _y, \"The two numbers should not be equal\");\r\n\r\n    x = _x + _y;\r\n\r\n    emit AddLog(x,_x, _y, block.timestamp);\r\n  }\r\n\r\n  function getx() public view returns(uint256){\r\n    return x;\r\n  }\r\n}",
  "sourcePath": "C:\\Users\\hp\\Desktop\\TestDoc\\contracts\\Ali.sol",
  "compiler": {
    "name": "solc",
    "version": "0.5.0+commit.1d4f565a.Emscripten.clang"
  },
  "schemaVersion": "3.4.16",
  "updatedAt": "2024-02-20T02:08:27.288Z",
  "networkType": "ethereum",
  "devdoc": {
    "methods": {}
  },
  "userdoc": {
    "methods": {}
  }
}